:020000040800F2
:100000006806002089010008490200084102000832
:10001000450200083B0200085104000800000000EF
:100020000000000000000000000000004D02000879
:100030003F020008000000004B02000839030008DE
:10004000A3010008A3010008A3010008A301000800
:10005000A3010008A3010008A3010008A3010008F0
:10006000A3010008A3010008A3010008A3010008E0
:10007000A3010008A3010008A3010008A3010008D0
:10008000A3010008A3010008A3010008A3010008C0
:10009000A3010008A3010008A3010008A3010008B0
:1000A000A3010008A3010008A3010008A3010008A0
:1000B000A3010008A3010008A3010008A301000890
:1000C000A3010008A3010008A3010008A301000880
:1000D000A30100089D030008A3010008A301000874
:1000E000A3010008A3010008A301000800F002F822
:1000F00000F03AF80AA090E8000C82448344AAF188
:100100000107DA4501D100F02FF8AFF2090EBAE885
:100110000F0013F0010F18BFFB1A43F0010318473B
:100120003803000058030000103A24BF78C878C193
:10013000FAD8520724BF30C830C144BF04680C60ED
:10014000704700000023002400250026103A28BF35
:1001500078C1FBD8520728BF30C148BF0B60704739
:100160001FB51FBD10B510BD00F031F81146FFF7E7
:10017000F7FF00F06FF900F04FF803B4FFF7F2FF5C
:1001800003BC00F053F800000948804709480047C5
:10019000FEE7FEE7FEE7FEE7FEE7FEE7FEE7FEE737
:1001A000FEE7FEE704480549054A064B7047000094
:1001B0003D030008ED0000086800002068060020EC
:1001C000680200206802002070477047704775463B
:1001D00000F028F8AE4605006946534620F00700B7
:1001E000854618B020B5FFF7DDFFBDE820404FF091
:1001F00000064FF000074FF000084FF0000B21F011
:100200000701AC46ACE8C009ACE8C009ACE8C009DD
:10021000ACE8C0098D4670470446AFF30080204625
:10022000FFF7ABFF00487047040000200149182089
:10023000ABBEFEE726000200704700BFFEE7704736
:1002400000BFFEE700BFFEE770477047704710B57C
:1002500000F002F810BD00000CB5002001900090E5
:100260003348006840F480303149086000BF3048AE
:10027000006800F4003000900198401C0190009844
:1002800018B90198B0F5A06FF1D12948006800F4C1
:10029000003010B10120009001E000200090009893
:1002A000012843D12348006840F01000214908602C
:1002B0000846006820F0030008600846006840F027
:1002C000020008601A4840681949486008464068BA
:1002D00048600846406840F48060486008464068CE
:1002E00020F47C1048600846406840F4E8104860FC
:1002F0000846006840F08070086000BF0C48006845
:1003000000F000700028F9D00948406820F0030090
:10031000074948600846406840F00200486000BF56
:100320000348406800F00C000828F9D10CBD00001B
:1003300000100240002002407047000010B5134832
:10034000006840F001001149086008464068104903
:1003500008400E494860084600680E4908400B49AD
:1003600008600846006820F480200860084640685D
:1003700020F4FE0048604FF41F008860FFF767FF1D
:100380004FF000600449086010BD000000100240FA
:100390000000FFF8FFFFF6FE08ED00E010B540F2A8
:1003A0002551094800F025F801280CD1064800F035
:1003B0004AF80649087001200549087040F22551A5
:1003C000014800F007F810BD00380140000000208F
:1003D0000100002010B50022002340F66A14A1425B
:1003E00000D100BF0A1201249440A3B2DC43048070
:1003F00010BD70B50246002400230025002040F601
:100400006A16B14200D100BFC1F3421501F01F03CB
:10041000012606FA03F3012D02D19689334006E046
:10042000022D02D1168A334001E0968A33400C1225
:10043000012606FA04F41688344013B10CB10120E9
:1004400000E0002070BD01468888C0F308007047B6
:1004500000BFFEE700BFFEE77804000800000020B0
:1004600004000000280100087C04000804000020AB
:0C047000640600004401000800000000C9
:04000005080000ED02
:00000001FF
