S31508000000D006002089010008A9040008FD0300089D
S31508000010710400083B020008170D000800000000E4
S31508000020000000000000000000000000490600086B
S315080000303F0200080000000031050008ED0700082F
S31508000040A3010008A3010008A3010008A3010008F2
S31508000050A3010008A3010008A3010008A3010008E2
S31508000060A3010008A3010008A3010008A3010008D2
S31508000070A3010008A3010008A3010008A3010008C2
S31508000080A3010008A3010008A3010008A3010008B2
S31508000090A3010008A3010008A3010008A3010008A2
S315080000A0A3010008A3010008A3010008A301000892
S315080000B0A3010008A301000851080008A3010008CD
S315080000C0A3010008A3010008A3010008A301000872
S315080000D0A3010008050A0008A3010008A3010008F7
S315080000E0A3010008A3010008A301000800F002F814
S315080000F000F03AF80AA090E8000C82448344AAF17A
S315080001000107DA4501D100F02FF8AFF2090EBAE877
S315080001100F0013F0010F18BFFB1A43F0010318472D
S31508000120500C0000700C0000103A24BF78C878C143
S31508000130FAD8520724BF30C830C144BF04680C60DF
S31508000140704700000023002400250026103A28BF27
S3150800015078C1FBD8520728BF30C148BF0B6070472B
S315080001601FB51FBD10B510BD00F031F81146FFF7D9
S31508000170F7FF00F0DFFD00F04FF803B4FFF7F2FFDA
S3150800018003BC00F053F800000948804709480047B7
S31508000190FEE7FEE7FEE7FEE7FEE7FEE7FEE7FEE729
S315080001A0FEE7FEE704480549054A064B7047000086
S315080001B0F1070008ED000008D0000020D006002056
S315080001C0D0020020D002002070477047704775465D
S315080001D000F028F8AE4605006946534620F00700A9
S315080001E0854618B020B5FFF7DDFFBDE820404FF083
S315080001F000064FF000074FF000084FF0000B21F003
S315080002000701AC46ACE8C009ACE8C009ACE8C009CF
S31508000210ACE8C0098D4670470446AFF30080204617
S31508000220FFF7ABFF0048704770000020014918200F
S31508000230ABBEFEE726000200704700BFFEE7704728
S3150800024000EBC001C9004FF0E02251610021916125
S315080002500521116100BF4FF0E021096901F48031E1
S315080002600029F8D004214FF0E022116170472DE9EA
S31508000270F04102460025002600200023002400271E
S3150800028091F803C00CF00F0591F803C00CF0100CA0
S31508000290BCF1000F03D091F802C04CEA050591F8AD
S315080002A000C0BCF1000F31D0146800202BE04FF0DD
S315080002B0010C0CFA00F3B1F800C00CEA03069E42E2
S315080002C020D183004FF00F0C0CFA03F7BC4305FA54
S315080002D003FC4CEA040491F803C0BCF1280F06D1CC
S315080002E04FF0010C0CFA00FCC2F814C00AE091F8B1
S315080002F003C0BCF1480F05D14FF0010C0CFA00FC05
S31508000300C2F810C0401C0828D1D31460B1F800C048
S31508000310BCF1FF0F34DD546800202EE000F1080C14
S315080003204FF0010808FA0CF3B1F800C00CEA03060E
S315080003309E4221D183004FF00F0C0CFA03F7BC4301
S3150800034005FA03FC4CEA040491F803C0BCF1280F33
S3150800035005D100F1080C08FA0CF8C2F8148091F8D7
S3150800036003C0BCF1480F07D100F1080C4FF0010893
S3150800037008FA0CF8C2F81080401C0828CED354603E
S31508000380BDE8F0810246002093680B400BB10120BE
S3150800039000E00020704741617047016170470AB16B
S315080003A0016100E04161704708B50121082000F0AD
S315080003B0D1F810208DF80300C001ADF80000032025
S315080003C08DF8020069460C48FFF751FF28208DF882
S315080003D003004FF48050ADF8000069460648FFF761
S315080003E046FF00224FF400610348FFF7D8FF0F20AD
S315080003F0FFF726FF08BD0000000C014000BFFEE71E
S3150800040008B54FF400610848FFF7BCFF8DF80000F7
S315080004104FF480610548FFF7B5FF8DF80100BDF878
S315080004200010084608BD000000080140000C014005
S3150800043008B501210C2000F08DF848208DF803003E
S315080004404FF40060ADF8000003208DF802006946FD
S315080004500548FFF70CFF4FF48060ADF800006946C9
S315080004600248FFF704FF08BD00080140000C0140E0
S3150800047000BFFEE708B50121082000F06BF84FF42D
S315080004807870ADF8000003208DF8020010208DF872
S31508000490030069460348FFF7EAFE20210148FFF7F3
S315080004A07CFF08BD000C01407047000070B50021B4
S315080004B000230F22C47804B3154C246804F4E064BE
S315080004C0C4F5E064210AC1F10403CA40447804FA79
S315080004D003F184781440214309010E4C0678A1558E
S315080004E0047804F01F050124AC4005786D11AD00B1
S315080004F005F1E025C5F8004109E0047804F01F0578
S315080005000124AC40044D0678761145F8264070BDA6
S315080005100CED00E000E400E080E100E00249014360
S31508000520024A1160704700000000FA050CED00E071
S315080005307047000029B1064AD2690243044BDA61C2
S3150800054004E0034AD2698243014BDA61704700002E
S315080005500010024029B1064A92690243044B9A6187
S3150800056004E0034A92698243014B9A61704700008E
S315080005700010024030B500210022002400232D4D32
S315080005806D6805F00C0121B1042905D0082923D18D
S3150800059005E0294D056022E0274D05601FE0254D41
S315080005A06D6805F47012234D6D6805F480340225D4
S315080005B005EB92421CB9214D554305600BE01D4DD4
S315080005C06D6805F400351DB11C4D5543056002E004
S315080005D0194D5543056002E0174D056000BF00BF81
S315080005E0144D6D6805F0F0010909154D6B5C056839
S315080005F0DD4045600F4D6D6805F4E061090A104D50
S315080006006B5C4568DD4085600A4D6D6805F4605190
S31508000610C90A0B4D6B5C4568DD40C560054D6D68C4
S3150800062005F44041890B074D6B5CC568B5FBF3F5CE
S31508000630056130BD0010024000127A0000093D0035
S3150800064016000020260000207047000000B587B07D
S3150800065001218803FFF77EFF01210420FFF77AFFB7
S3150800066018208DF81B004FF40070ADF81800032011
S315080006708DF81A0006A92148FFF7F9FD48208DF8DC
S315080006801B004FF48060ADF8180003208DF81A009F
S3150800069006A91A48FFF7EBFD4FF4E1300290002057
S315080006A0ADF814000C20ADF812000020ADF81000CB
S315080006B0ADF80E00ADF80C0002A9114800F0BAFA20
S315080006C0012240F225510E4800F08FFA4FF4A0603F
S315080006D0FFF724FF25208DF8040001208DF8070078
S315080006E08DF805008DF8060001A8FFF7DFFE012149
S315080006F0034800F044FA07B000BD000000080140B6
S315080007000038014010B500F001F810BD0CB5002006
S31508000710019000903348006840F480303149086001
S3150800072000BF3048006800F4003000900198401C73
S315080007300190009818B90198B0F5A06FF1D1294831
S31508000740006800F4003010B10120009001E000209C
S3150800075000900098012843D12348006840F0100013
S31508000760214908600846006820F00300086008462A
S31508000770006840F0020008601A4840681949486055
S315080007800846406848600846406840F4806048600B
S315080007900846406820F47C1048600846406840F4E3
S315080007A0E81048600846006840F08070086000BF9E
S315080007B00C48006800F000700028F9D00948406825
S315080007C020F00300074948600846406840F00200E8
S315080007D0486000BF0348406800F00C000828F9D1BB
S315080007E00CBD0000001002400020024070470000C7
S315080007F010B51348006840F0010011490860084622
S315080008004068104908400E494860084600680E4985
S3150800081008400B4908600846006820F480200860F4
S315080008200846406820F4FE0048604FF41F008860C0
S31508000830FFF768FF4FF000600449086010BD00002C
S31508000840001002400000FFF8FFFFF6FE08ED00E08A
S3150800085010B50121094800F027F801280CD10848ED
S31508000860D0E90020521C40F100000549C1E90020EA
S315080008700121024800F009F810BD000000080040F8
S3150800088000000020CA4302827047CA4302827047AA
S3150800089021B1028842F00102028004E002884FF684
S315080008A0FE731A400280704730B5024600200023C6
S315080008B00024158A05EA0103958905EA010413B19E
S315080008C00CB1012000E0002030BD1AB183890B432A
S315080008D0838102E083898B438381704701894FF6C0
S315080008E0F872114001817047002202881D4B984218
S315080008F00ED01D4B98420BD0B0F1804F08D01B4B41
S31508000900984205D01A4B984202D01A4B984204D105
S315080009104FF68F731A404B881A43174B984207D0E5
S31508000920164B984204D04FF6FF431A40CB881A4319
S3150800093002808B8883850B8803850A4B98420BD0E7
S31508000940094B984208D00E4B984205D00D4B984259
S3150800095002D00D4B984201D10B7A0386012383827C
S3150800096070470000002C014000340140000400409C
S3150800097000080040000C0040001000400014004031
S315080009800040014000440140004801401FB50121D4
S315080009900420FFF7CFFD1A48FFF7A0FF0020ADF8A7
S315080009A00A00ADF806000920ADF808004720ADF8A2
S315080009B0040000208DF80C0001A91148FFF794FFE8
S315080009C001210F48FFF75EFF012211460C48FFF789
S315080009D07CFF4FF4A060FFF7A1FD1E208DF80000F4
S315080009E001208DF8030002208DF801008DF8020021
S315080009F06846FFF75BFD01210148FFF749FF1FBD68
S31508000A000008004010B540F225514E4800F0C3F8E2
S31508000A1001287DD14B4800F079F94B49087001202F
S31508000A204A490870474800F071F9C4B240F22551A6
S31508000A30444800F095F84648007808287AD2DFE856
S31508000A4000F0040F1B27333F4B52A52C07D101207A
S31508000A503F4908703F48047000203F4908706DE020
S31508000A603D490878411C3C4A11703A49491C0C54C6
S31508000A7002203749087061E037490878411C364A30
S31508000A8011703449491C0C5403203149087055E04B
S31508000A9031490878411C304A11702E49491C0C54BA
S31508000AA004202B49087049E02B490878411C2A4A3A
S31508000AB011702849491C0C540520254908703DE049
S31508000AC025490878411C244A11702249491C0C54AE
S31508000AD006201F49087031E01E4880F8414007206B
S31508000AE01B4908702AE05A2C1DD10020002105E078
S31508000AF0184A521C525C0244D0B2491C164A127853
S31508000B009142F5DBC0B2134991F84110814201E0E8
S31508000B1016E00FE003D10121104A117002E000210E
S31508000B200E4A117002E000200C490870002008499E
S31508000B30087003E000200649087000BF00BF00BF28
S31508000B4010BD0000003801401000002011000020F0
S31508000B50150000202C0000201200002013000020A1
S31508000B6010B50022002340F66A14A14200D100BF46
S31508000B700A1201249440A3B2DC43048010BD21B1BB
S31508000B80828942F40052828104E082894DF6FF731D
S31508000B901A408281704770B502460024002300255A
S31508000BA0002040F66A16B14200D100BFC1F34215D3
S31508000BB001F01F03012606FA03F3012D02D19689D7
S31508000BC0334006E0022D02D1168A334001E0968AA8
S31508000BD033400C12012606FA04F41688344013B181
S31508000BE00CB1012000E0002070BDF0B503460024DA
S31508000BF000260025002040F66A17B94200D100BF3A
S31508000C001846C1F3421401F01F06012707FA06F534
S31508000C10012C01D10C3004E0022C01D1103000E087
S31508000C2014301AB107682F43076002E00768AF431C
S31508000C300760F0BD2DE9F04786B005460E4600244C
S31508000C40A24600BFA1460027B08900B100BF2F46C3
S31508000C502C8A4CF6FF700440F08804432C82AC8939
S31508000C604EF6F3100440B088318908437189084369
S31508000C700443AC81AC8A4FF6FF400440B089044374
S31508000C80AC8201A8FFF776FC1F48874202D1DDF83F
S31508000C9010A001E0DDF80CA0A88900F4004040B1DE
S31508000CA00AEBCA0000EB0A1031684900B0FBF1F8FC
S31508000CB007E00AEBCA0000EB0A1031688900B0FBAE
S31508000CC0F1F86420B8FBF0F004012009642101FB67
S31508000CD01089A88900F4004040B1322000EBC90011
S31508000CE0B0FBF1F000F00700044308E0322000EB07
S31508000CF009106421B0FBF1F000F00F0004432C81C9
S31508000D0006B0BDE8F0870000003801400146888833
S31508000D10C0F30800704700BFFEE710B5FFF7AAFB4F
S31508000D20FFF794FCFFF732FEFFF73EFBFFF780FB69
S31508000D3010BD000008B5FFF7F0FF00BF15E0FFF78C
S31508000D405FFB00909DF80050FFF75AFB00909DF856
S31508000D500140012D03D120210448FFF71CFB012C7B
S31508000D6003D120210148FFF718FBE8E7000C0140F2
S31508000D70900D0008000000202C0000002801000843
S31508000D80BC0D00082C000020A40600004401000841
S31508000D900000000000000000000000000000000045
S31508000DA00000000000000000000001020304010228
S31108000DB0030406070809020406080000F0
S705080000ED05
