S31508000000C0070020C1010008250600087905000878
S31508000010ED0500089F030008430F000800000000D4
S31508000020000000000000000000000000750800083D
S31508000030A303000800000000AD060008190A00081E
S31508000040DB010008DB010008DB010008DB01000812
S31508000050DB010008DB010008DB010008DB01000802
S31508000060DB010008DB010008DB010008DB010008F2
S31508000070DB010008DB010008DB010008DB010008E2
S31508000080DB010008DB010008DB010008DB010008D2
S31508000090DB010008DB010008DB010008DB010008C2
S315080000A0DB010008DB010008DB010008DB010008B2
S315080000B0DB010008DB0100087D0A0008DB010008F7
S315080000C0DB010008DB010008DB010008DB01000892
S315080000D0DB010008310C0008DB010008DB01000821
S315080000E0DB010008DB010008DB01000800F002F86C
S315080000F000F03CF80AA090E8000C82448344AAF178
S315080001000107DA4501D100F031F8AFF2090EBAE875
S315080001100F0013F0010F18BFFB1A43F0010318472D
S315080001201811000038110000103A24BF78C878C1A9
S31508000130FAD8520724BF30C830C144BF04680C60DF
S31508000140704700000023002400250026103A28BF27
S3150800015078C1FBD8520728BF30C148BF0B6070472B
S315080001601FB500F0DAF81FBD10B510BD00F0E1F8B4
S315080001701146FFF7F5FF00F0BBFF00F0FFF803B4E8
S31508000180FFF7F2FF03BC00F003F900000B49D1F8B2
S3150800019000C04A685CF8043B1068184442F8040B2F
S315080001A08C4528BFA1F1DC0C8A4228BFA1F1DC02EC
S315080001B0C1F800C04A6020F0004070475401002092
S315080001C00948804709480047FEE7FEE7FEE7FEE7DD
S315080001D0FEE7FEE7FEE7FEE7FEE7FEE70448054919
S315080001E0054A064B704700001D0A0008ED00000886
S315080001F0C0010020C0070020C0030020C003002063
S3150800020053EA020C00F069802DE9F04B4FF0000626
S31508000210002B1FBFB3FA83F503FA05F424FA05F693
S315080002205E4012BF1643B2FA82F502FA05F4C5F12A
S3150800023020051EBF22FA05FC44EA0C04203556EABE
S31508000240044C4FEA144418BF641C4FF000084FF0E2
S315080002500009904271EB030C39D3002919BFB1FA92
S3150800026081F701FA07F6B0FA80F700FA07F6C7F140
S3150800027020071EBF20FA07FC46EA0C062037B6FB05
S31508000280F4FCA7EB0507103F07F01F0BCBF1200680
S315080002900CFA0BFB2CFA06F644BFB3460026202FB1
S315080002A0A4BF5E464FF0000B5BEA060C08BF4FF092
S315080002B0010B19EB0B09ABFB027C48EB0608C01BCC
S315080002C006FB02CC0BFB03CC71EB0C01C1E70B461A
S315080002D0024641464846BDE8F08B13B54FF000008C
S315080002E04FF00001AFF30080BDE81C4070470000E6
S315080002F00B4910B5A1F17C020A4CC2E93712372125
S3150800030006E000EB104342F82130074B00FB0340A0
S315080003100B1EA1F10101F4DC10BD0120E8E7000085
S31508000320F4000020E119D666CD0D0100704770472C
S315080003307047754600F028F8AE46050069465346EC
S3150800034020F00700854618B020B5FFF747FFBDE83F
S3150800035020404FF000064FF000074FF000084FF01E
S31508000360000B21F00701AC46ACE8C009ACE8C009AF
S31508000370ACE8C009ACE8C0098D4670470446AFF33F
S3150800038000802046FFF7FBFE004870475C0100200E
S3150800039001491820ABBEFEE726000200704700BFE1
S315080003A0FEE7704700B5034603E04FF47A7000F0A5
S315080003B005F81800A3F10103F7D100BD00EBC00151
S315080003C0C9004FF0E02251610021916105211161B8
S315080003D000BF4FF0E021096901F480310029F8D007
S315080003E004214FF0E022116170472DE9F0410246E1
S315080003F000250026002000230024002791F803C0CA
S315080004000CF00F0591F803C00CF0100CBCF1000FAE
S3150800041003D091F802C04CEA050591F800C0BCF17A
S31508000420000F31D0146800202BE04FF0010C0CFAB5
S3150800043000F3B1F800C00CEA03069E4220D18300FF
S315080004404FF00F0C0CFA03F7BC4305FA03FC4CEA11
S31508000450040491F803C0BCF1280F06D14FF0010C33
S315080004600CFA00FCC2F814C00AE091F803C0BCF10B
S31508000470480F05D14FF0010C0CFA00FCC2F810C069
S31508000480401C0828D1D31460B1F800C0BCF1FF0F96
S3150800049034DD546800202EE000F1080C4FF0010806
S315080004A008FA0CF3B1F800C00CEA03069E4221D103
S315080004B083004FF00F0C0CFA03F7BC4305FA03FC54
S315080004C04CEA040491F803C0BCF1280F05D100F1E9
S315080004D0080C08FA0CF8C2F8148091F803C0BCF1AD
S315080004E0480F07D100F1080C4FF0010808FA0CF87C
S315080004F0C2F81080401C0828CED35460BDE8F081AD
S315080005000246002093680B400BB1012000E0002052
S31508000510704741617047016170470AB1016100E0A7
S315080005204161704708B50121082000F029F910201B
S315080005308DF80300C001ADF8000003208DF8020015
S3150800054069460C48FFF751FF28208DF803004FF441
S315080005508050ADF8000069460648FFF746FF0022BE
S315080005604FF400610348FFF7D8FF0F20FFF726FF77
S3150800057008BD0000000C014000BFFEE708B54FF4B7
S3150800058080610848FFF7BCFF8DF800004FF4006152
S315080005900548FFF7B5FF8DF80100BDF800100846BD
S315080005A008BD0000000C01400008014008B5012103
S315080005B00C2000F0E5F848208DF803004FF40060A1
S315080005C0ADF8000003208DF8020069460548FFF7DC
S315080005D00CFF4FF48060ADF8000069460248FFF74B
S315080005E004FF08BD00080140000C014000BFFEE7FB
S315080005F008B50121082000F0C3F84FF47870ADF86B
S31508000600000003208DF8020010208DF803006946CB
S315080006100348FFF7EAFE20210148FFF77CFF08BDE3
S31508000620000C01407047000070B5002100230F221E
S31508000630C47804B3154C246804F4E064C4F5E06493
S31508000640210AC1F10403CA40447804FA03F1847804
S315080006501440214309010E4C0678A155047804F08C
S315080006601F050124AC4005786D11AD0005F1E025A4
S31508000670C5F8004109E0047804F01F050124AC40E0
S31508000680044D0678761145F8264070BD0CED00E05D
S3150800069000E400E080E100E002490143024A1160FB
S315080006A0704700000000FA050CED00E070470000F6
S315080006B070B526480078002847D025484478407900
S315080006C001062348007941EA00412148C07841EAF9
S315080006D000201F49897840EA0105012C04D1202110
S315080006E01C48FFF718FF04E01CB920211948FFF73A
S315080006F010FF082D24D2DFE805F01B04070A0D10A9
S31508000700131700F0A1FC1BE000F08EFC18E000F0C7
S31508000710AFFC15E000F0B4FC12E000F08DFC0FE031
S3150800072001200D4908700BE001200C49087007E00C
S3150800073000F0AEFC0020084908700849087000BFA0
S3150800074000BF00200149087000BF70BD13000020DB
S3150800075034000020000C0140140000201500002081
S3150800076029B1064AD2690243044BDA6104E0034A16
S31508000770D2698243014BDA617047000000100240DB
S3150800078029B1064A92690243044B9A6104E0034A76
S3150800079092698243014B9A6170470000001002403B
S315080007A030B500210022002400232D4D6D6805F088
S315080007B00C0121B1042905D0082923D105E0294DCA
S315080007C0056022E0274D05601FE0254D6D6805F49C
S315080007D07012234D6D6805F48034022505EB9242AC
S315080007E01CB9214D554305600BE01D4D6D6805F498
S315080007F000351DB11C4D5543056002E0194D5543A2
S31508000800056002E0174D056000BF00BF144D6D6816
S3150800081005F0F0010909154D6B5C0568DD4045607A
S315080008200F4D6D6805F4E061090A104D6B5C45686B
S31508000830DD4085600A4D6D6805F46051C90A0B4DA7
S315080008406B5C4568DD40C560054D6D6805F4404143
S31508000850890B074D6B5CC568B5FBF3F5056130BDC3
S315080008600010024000127A0000093D00170000201F
S31508000870270000207047000000B587B001218803D3
S31508000880FFF77EFF01210420FFF77AFF18208DF875
S315080008901B004FF40070ADF8180003208DF81A00FD
S315080008A006A92148FFF7A1FD48208DF81B004FF443
S315080008B08060ADF8180003208DF81A0006A91A48BA
S315080008C0FFF793FD4FF4E13002900020ADF81400D5
S315080008D00C20ADF812000020ADF81000ADF80E009F
S315080008E0ADF80C0002A9114800F0BAFA012240F24C
S315080008F025510E4800F08FFA4FF4A060FFF7CCFEA2
S3150800090025208DF8040001208DF807008DF80500D4
S315080009108DF8060001A8FFF787FE0121034800F0BD
S3150800092044FA07B000BD0000000801400038014045
S3150800093010B500F001F810BD0CB50020019000902C
S315080009403348006840F480303149086000BF3048B9
S31508000950006800F4003000900198401C019000984F
S3150800096018B90198B0F5A06FF1D12948006800F4CC
S31508000970003010B10120009001E00020009000989E
S31508000980012843D12348006840F010002149086037
S315080009900846006820F0030008600846006840F032
S315080009A0020008601A4840681949486008464068C5
S315080009B048600846406840F48060486008464068D9
S315080009C020F47C1048600846406840F4E810486007
S315080009D00846006840F08070086000BF0C48006850
S315080009E000F000700028F9D00948406820F003009C
S315080009F0074948600846406840F00200486000BF62
S31508000A000348406800F00C000828F9D10CBD000026
S31508000A1000100240002002407047000010B513483D
S31508000A20006840F00100114908600846406810490E
S31508000A3008400E494860084600680E4908400B49B8
S31508000A4008600846006820F4802008600846406868
S31508000A5020F4FE0048604FF41F008860FFF768FF27
S31508000A604FF000600449086010BD00000010024005
S31508000A700000FFF8FFFFF6FE08ED00E010B50121C3
S31508000A80094800F027F801280CD10848D0E90020C9
S31508000A90521C40F100000549C1E900200121024825
S31508000AA000F009F810BD0000000800400000002012
S31508000AB0CA4302827047CA430282704721B102883C
S31508000AC042F00102028004E002884FF6FE731A40E3
S31508000AD00280704730B50246002000230024158A9C
S31508000AE005EA0103958905EA010413B10CB1012051
S31508000AF000E0002030BD1AB183890B43838102E0F0
S31508000B0083898B438381704701894FF6F8721140B8
S31508000B1001817047002202881D4B98420ED01D4B5A
S31508000B2098420BD0B0F1804F08D01B4B984205D0A5
S31508000B301A4B984202D01A4B984204D14FF68F733B
S31508000B401A404B881A43174B984207D0164B9842BF
S31508000B5004D04FF6FF431A40CB881A4302808B888D
S31508000B6083850B8803850A4B98420BD0094B98421C
S31508000B7008D00E4B984205D00D4B984202D00D4B2B
S31508000B80984201D10B7A03860123838270470000BD
S31508000B90002C0140003401400004004000080040D9
S31508000BA0000C0040001000400014004000400140C6
S31508000BB000440140004801401FB501210420FFF709
S31508000BC0CFFD1A48FFF7A0FF0020ADF80A00ADF8E0
S31508000BD006000920ADF808004720ADF804000020FB
S31508000BE08DF80C0001A91148FFF794FF01210F4861
S31508000BF0FFF75EFF012211460C48FFF77CFF4FF412
S31508000C00A060FFF749FD1E208DF8000001208DF831
S31508000C10030002208DF801008DF802006846FFF7F0
S31508000C2003FD01210148FFF749FF1FBD00080040E9
S31508000C3010B540F225514E4800F0C3F801287DD181
S31508000C404B4800F079F94B49087001204A49087069
S31508000C50474800F071F9C4B240F22551444800F003
S31508000C6095F84648007808287AD2DFE800F0040F9D
S31508000C701B27333F4B52A52C07D101203F4908704B
S31508000C803F48047000203F4908706DE03D490878E8
S31508000C90411C3C4A11703A49491C0C5402203749F8
S31508000CA0087061E037490878411C364A11703449A2
S31508000CB0491C0C5403203149087055E0314908781D
S31508000CC0411C304A11702E49491C0C5404202B49EA
S31508000CD0087049E02B490878411C2A4A11702849AE
S31508000CE0491C0C540520254908703DE0254908781B
S31508000CF0411C244A11702249491C0C5406201F49DC
S31508000D00087031E01E4880F8414007201B490870EA
S31508000D102AE05A2C1DD10020002105E0184A521C51
S31508000D20525C0244D0B2491C164A12789142F5DB4D
S31508000D30C0B2134991F84110814201E016E00FE074
S31508000D4003D10121104A117002E000210E4A1170E8
S31508000D5002E000200C49087000200849087003E0EA
S31508000D6000200649087000BF00BF00BF10BD000084
S31508000D700038014010000020110000201600002055
S31508000D8034000020120000201300002010B50022B5
S31508000D90002340F66A14A14200D100BF0A120124BA
S31508000DA09440A3B2DC43048010BD21B1828942F489
S31508000DB00052828104E082894DF6FF731A408281CF
S31508000DC0704770B50246002400230025002040F62F
S31508000DD06A16B14200D100BFC1F3421501F01F03E4
S31508000DE0012606FA03F3012D02D19689334006E05F
S31508000DF0022D02D1168A334001E0968A33400C123E
S31508000E00012606FA04F41688344013B10CB1012001
S31508000E1000E0002070BDF0B503460024002600253A
S31508000E20002040F66A17B94200D100BF1846C1F340
S31508000E30421401F01F06012707FA06F5012C01D115
S31508000E400C3004E0022C01D1103000E014301AB145
S31508000E5007682F43076002E00768AF430760F0BDE5
S31508000E602DE9F04786B005460E460024A24600BF87
S31508000E70A1460027B08900B100BF2F462C8A4CF640
S31508000E80FF700440F08804432C82AC894EF6F310B8
S31508000E900440B08831890843718908430443AC810A
S31508000EA0AC8A4FF6FF400440B0890443AC8201A8DF
S31508000EB0FFF776FC1F48874202D1DDF810A001E053
S31508000EC0DDF80CA0A88900F4004040B10AEBCA007E
S31508000ED000EB0A1031684900B0FBF1F807E00AEBAD
S31508000EE0CA0000EB0A1031688900B0FBF1F86420EB
S31508000EF0B8FBF0F004012009642101FB1089A889D8
S31508000F0000F4004040B1322000EBC900B0FBF1F01C
S31508000F1000F00700044308E0322000EB09106421C2
S31508000F20B0FBF1F000F00F0004432C8106B0BDE8D9
S31508000F30F08700000038014001468888C0F30800A1
S31508000F40704700BFFEE7000010B51E48007801286C
S31508000F5036D11D4800687D2802DD00F075F82FE0BF
S31508000F601A480078012807D100F082F8C820FFF750
S31508000F7019FA00F069F823E015480078012807D126
S31508000F8000F07EF8C820FFF70DFA00F05DF817E0CC
S31508000F9000F04AF8C820FFF705FAFFF7F7F8044605
S31508000FA000EBD4704010A4EB400010B900F060F8D4
S31508000FB001E000F065F8C820FFF7F4F900F044F8FE
S31508000FC010BD0000140000202C0000203000002076
S31508000FD03100002010B51248007801281ED11148AA
S31508000FE000687D2802DD00F02FF817E000F01CF8F5
S31508000FF0C820FFF7D7F9FFF7C9F8044600EBD47005
S315080010004010A4EB400010B900F032F801E000F0FF
S3150800101037F8C820FFF7C6F900F016F810BD00002B
S31508001020150000202C00002010B5022000F038F82A
S31508001030022000F081F810BD10B5032000F030F84A
S31508001040022000F079F810BD10B5032000F028F84A
S31508001050032000F071F810BD10B5FFF7C9FAFFF7C5
S315080010600BFCFFF7A9FDFFF75DFAFFF79FFA10BD26
S3150800107010B5022000F014F8032000F05DF810BD4A
S3150800108010B5032000F00CF8022000F055F810BD4A
S3150800109010B5012000F004F8012000F04DF810BD4D
S315080010A010B50446012C04D0022C0BD0032C1BD1FE
S315080010B011E040210D48FFF72CFA80210B48FFF775
S315080010C028FA11E040210948FFF723FA802107484A
S315080010D0FFF721FA08E040210448FFF71CFA8021AF
S315080010E00248FFF716FA00BF00BF10BD000C01400A
S315080010F008B5FFF7B1FF17E0FFF740FA00909DF833
S3150800110000000A490870FFF739FA00909DF80100B7
S3150800111007490870FFF7CCFA00F03CF80549086063
S31508001120FFF758FFFFF710FFE6E700003000002042
S31508001130310000202C00002010B50446012C04D0F4
S31508001140022C0DD0032C21D115E04FF40071104864
S31508001150FFF7DFF94FF480710D48FFF7DAF915E06C
S315080011604FF400710A48FFF7D6F94FF48071084822
S31508001170FFF7CFF90AE04FF400710548FFF7C9F900
S315080011804FF480710248FFF7C6F900BF00BF10BDD3
S31508001190000C01402DE9F04100250122D102234827
S315080011A0FFF7BBF90F20FFF709F900224FF400619A
S315080011B01E48FFF7B2F900BF4FF480511B48FFF7EE
S315080011C09FF90028F8D00021194A1160516000BF24
S315080011D04FF480511548FFF793F90128F8D01448C1
S315080011E0D0E90010134AC2E900106422002311490D
S315080011F003C9FFF705F8263871F1000113D20D4827
S315080012004FF4AD7306C80020A1FB036802FB0382F6
S3150800121001FB0021022203463046FEF7F1FF044691
S315080012206420B4FBF0F528B2BDE8F081000C01405B
S3150800123000000020080000205812000800000020C6
S3150800124034000000280100088C1200083400002031
S315080012508C070000440100080000000000000000A0
S315080012600000000000000000000000000000000070
S31508001270000000010203040102030406070809022C
S3110800128004060800000000000000000042
S705080000ED05
